{
  "_format": "hh-sol-artifact-1",
  "contractName": "IdentityVerification",
  "sourceName": "contracts/digitalidentity.sol",
  "abi": [
    {
      "inputs": [],
      "stateMutability": "nonpayable",
      "type": "constructor"
    },
    {
      "anonymous": false,
      "inputs": [
        {
          "indexed": true,
          "internalType": "address",
          "name": "user",
          "type": "address"
        },
        {
          "indexed": false,
          "internalType": "string",
          "name": "name",
          "type": "string"
        }
      ],
      "name": "IdentityRegistered",
      "type": "event"
    },
    {
      "anonymous": false,
      "inputs": [
        {
          "indexed": true,
          "internalType": "address",
          "name": "user",
          "type": "address"
        }
      ],
      "name": "IdentityRevoked",
      "type": "event"
    },
    {
      "anonymous": false,
      "inputs": [
        {
          "indexed": true,
          "internalType": "address",
          "name": "user",
          "type": "address"
        }
      ],
      "name": "IdentityVerified",
      "type": "event"
    },
    {
      "inputs": [
        {
          "internalType": "address",
          "name": "user",
          "type": "address"
        }
      ],
      "name": "getIdentity",
      "outputs": [
        {
          "internalType": "string",
          "name": "",
          "type": "string"
        },
        {
          "internalType": "bool",
          "name": "",
          "type": "bool"
        },
        {
          "internalType": "uint256",
          "name": "",
          "type": "uint256"
        }
      ],
      "stateMutability": "view",
      "type": "function"
    },
    {
      "inputs": [
        {
          "internalType": "address",
          "name": "",
          "type": "address"
        }
      ],
      "name": "identities",
      "outputs": [
        {
          "internalType": "string",
          "name": "name",
          "type": "string"
        },
        {
          "internalType": "bool",
          "name": "verified",
          "type": "bool"
        },
        {
          "internalType": "uint256",
          "name": "timestamp",
          "type": "uint256"
        }
      ],
      "stateMutability": "view",
      "type": "function"
    },
    {
      "inputs": [],
      "name": "owner",
      "outputs": [
        {
          "internalType": "address",
          "name": "",
          "type": "address"
        }
      ],
      "stateMutability": "view",
      "type": "function"
    },
    {
      "inputs": [
        {
          "internalType": "string",
          "name": "name",
          "type": "string"
        }
      ],
      "name": "registerIdentity",
      "outputs": [],
      "stateMutability": "nonpayable",
      "type": "function"
    },
    {
      "inputs": [
        {
          "internalType": "address",
          "name": "user",
          "type": "address"
        }
      ],
      "name": "revokeIdentity",
      "outputs": [],
      "stateMutability": "nonpayable",
      "type": "function"
    },
    {
      "inputs": [
        {
          "internalType": "address",
          "name": "user",
          "type": "address"
        }
      ],
      "name": "verifyIdentity",
      "outputs": [],
      "stateMutability": "nonpayable",
      "type": "function"
    }
  ],
  "bytecode": "0x6080604052348015600f57600080fd5b50336000806101000a81548173ffffffffffffffffffffffffffffffffffffffff021916908373ffffffffffffffffffffffffffffffffffffffff160217905550610d808061005f6000396000f3fe608060405234801561001057600080fd5b50600436106100625760003560e01c80630ebddd17146100675780632fea7b81146100835780638da5cb5b146100b557806392849ca4146100d3578063b5b90fd9146100ef578063f653b81e1461010b575b600080fd5b610081600480360381019061007c9190610707565b61013d565b005b61009d60048036038101906100989190610707565b61026c565b6040516100ac939291906107f8565b60405180910390f35b6100bd610393565b6040516100ca9190610845565b60405180910390f35b6100ed60048036038101906100e89190610995565b6103b7565b005b61010960048036038101906101049190610707565b6104a8565b005b61012560048036038101906101209190610707565b6105d6565b604051610134939291906107f8565b60405180910390f35b60008054906101000a900473ffffffffffffffffffffffffffffffffffffffff1673ffffffffffffffffffffffffffffffffffffffff163373ffffffffffffffffffffffffffffffffffffffff16146101cb576040517f08c379a00000000000000000000000000000000000000000000000000000000081526004016101c290610a2a565b60405180910390fd5b6000600160008373ffffffffffffffffffffffffffffffffffffffff1673ffffffffffffffffffffffffffffffffffffffff16815260200190815260200160002060010160006101000a81548160ff0219169083151502179055508073ffffffffffffffffffffffffffffffffffffffff167fccf550e579fbeb7d56da9a0175f8d4526535cab139e73b592516f1916d4075dd60405160405180910390a250565b60606000806000600160008673ffffffffffffffffffffffffffffffffffffffff1673ffffffffffffffffffffffffffffffffffffffff1681526020019081526020016000206040518060600160405290816000820180546102cd90610a79565b80601f01602080910402602001604051908101604052809291908181526020018280546102f990610a79565b80156103465780601f1061031b57610100808354040283529160200191610346565b820191906000526020600020905b81548152906001019060200180831161032957829003601f168201915b505050505081526020016001820160009054906101000a900460ff161515151581526020016002820154815250509050806000015181602001518260400151935093509350509193909250565b60008054906101000a900473ffffffffffffffffffffffffffffffffffffffff1681565b604051806060016040528082815260200160001515815260200142815250600160003373ffffffffffffffffffffffffffffffffffffffff1673ffffffffffffffffffffffffffffffffffffffff16815260200190815260200160002060008201518160000190816104299190610c56565b5060208201518160010160006101000a81548160ff021916908315150217905550604082015181600201559050503373ffffffffffffffffffffffffffffffffffffffff167f9b6805eb7a1bee8a797c79c5f2a39a182f3d37f8b8cce5ec42371000c8115dfd8260405161049d9190610d28565b60405180910390a250565b60008054906101000a900473ffffffffffffffffffffffffffffffffffffffff1673ffffffffffffffffffffffffffffffffffffffff163373ffffffffffffffffffffffffffffffffffffffff1614610536576040517f08c379a000000000000000000000000000000000000000000000000000000000815260040161052d90610a2a565b60405180910390fd5b60018060008373ffffffffffffffffffffffffffffffffffffffff1673ffffffffffffffffffffffffffffffffffffffff16815260200190815260200160002060010160006101000a81548160ff0219169083151502179055508073ffffffffffffffffffffffffffffffffffffffff167f02f93fdaafad8edad1ca75101b1fbda62e64ab9afc26d0ea801ccf6ef02c09ab60405160405180910390a250565b60016020528060005260406000206000915090508060000180546105f990610a79565b80601f016020809104026020016040519081016040528092919081815260200182805461062590610a79565b80156106725780601f1061064757610100808354040283529160200191610672565b820191906000526020600020905b81548152906001019060200180831161065557829003601f168201915b5050505050908060010160009054906101000a900460ff16908060020154905083565b6000604051905090565b600080fd5b600080fd5b600073ffffffffffffffffffffffffffffffffffffffff82169050919050565b60006106d4826106a9565b9050919050565b6106e4816106c9565b81146106ef57600080fd5b50565b600081359050610701816106db565b92915050565b60006020828403121561071d5761071c61069f565b5b600061072b848285016106f2565b91505092915050565b600081519050919050565b600082825260208201905092915050565b60005b8381101561076e578082015181840152602081019050610753565b60008484015250505050565b6000601f19601f8301169050919050565b600061079682610734565b6107a0818561073f565b93506107b0818560208601610750565b6107b98161077a565b840191505092915050565b60008115159050919050565b6107d9816107c4565b82525050565b6000819050919050565b6107f2816107df565b82525050565b60006060820190508181036000830152610812818661078b565b905061082160208301856107d0565b61082e60408301846107e9565b949350505050565b61083f816106c9565b82525050565b600060208201905061085a6000830184610836565b92915050565b600080fd5b600080fd5b7f4e487b7100000000000000000000000000000000000000000000000000000000600052604160045260246000fd5b6108a28261077a565b810181811067ffffffffffffffff821117156108c1576108c061086a565b5b80604052505050565b60006108d4610695565b90506108e08282610899565b919050565b600067ffffffffffffffff821115610900576108ff61086a565b5b6109098261077a565b9050602081019050919050565b82818337600083830152505050565b6000610938610933846108e5565b6108ca565b90508281526020810184848401111561095457610953610865565b5b61095f848285610916565b509392505050565b600082601f83011261097c5761097b610860565b5b813561098c848260208601610925565b91505092915050565b6000602082840312156109ab576109aa61069f565b5b600082013567ffffffffffffffff8111156109c9576109c86106a4565b5b6109d584828501610967565b91505092915050565b7f4e6f7420617574686f72697a6564000000000000000000000000000000000000600082015250565b6000610a14600e8361073f565b9150610a1f826109de565b602082019050919050565b60006020820190508181036000830152610a4381610a07565b9050919050565b7f4e487b7100000000000000000000000000000000000000000000000000000000600052602260045260246000fd5b60006002820490506001821680610a9157607f821691505b602082108103610aa457610aa3610a4a565b5b50919050565b60008190508160005260206000209050919050565b60006020601f8301049050919050565b600082821b905092915050565b600060088302610b0c7fffffffffffffffffffffffffffffffffffffffffffffffffffffffffffffffff82610acf565b610b168683610acf565b95508019841693508086168417925050509392505050565b6000819050919050565b6000610b53610b4e610b49846107df565b610b2e565b6107df565b9050919050565b6000819050919050565b610b6d83610b38565b610b81610b7982610b5a565b848454610adc565b825550505050565b600090565b610b96610b89565b610ba1818484610b64565b505050565b5b81811015610bc557610bba600082610b8e565b600181019050610ba7565b5050565b601f821115610c0a57610bdb81610aaa565b610be484610abf565b81016020851015610bf3578190505b610c07610bff85610abf565b830182610ba6565b50505b505050565b600082821c905092915050565b6000610c2d60001984600802610c0f565b1980831691505092915050565b6000610c468383610c1c565b9150826002028217905092915050565b610c5f82610734565b67ffffffffffffffff811115610c7857610c7761086a565b5b610c828254610a79565b610c8d828285610bc9565b600060209050601f831160018114610cc05760008415610cae578287015190505b610cb88582610c3a565b865550610d20565b601f198416610cce86610aaa565b60005b82811015610cf657848901518255600182019150602085019450602081019050610cd1565b86831015610d135784890151610d0f601f891682610c1c565b8355505b6001600288020188555050505b505050505050565b60006020820190508181036000830152610d42818461078b565b90509291505056fea2646970667358221220b53b718972b7da09e82118bba80ca1ef6c1a55b37b93789abc67dfe33f75fcef64736f6c634300081a0033",
  "linkReferences": {},
  "deployedLinkReferences": {}
}